{
  "address": "0xCf7Ed3AccA5a467e9e704C703E8D87F634fB0Fc9",
  "abi": [
    {
      "inputs": [
        {
          "internalType": "address",
          "name": "vrfCoordinatorV2",
          "type": "address"
        },
        {
          "internalType": "uint256",
          "name": "enteranceFee",
          "type": "uint256"
        },
        {
          "internalType": "bytes32",
          "name": "gasLane",
          "type": "bytes32"
        },
        {
          "internalType": "uint64",
          "name": "subscriptionId",
          "type": "uint64"
        },
        {
          "internalType": "uint32",
          "name": "callbackGasLimit",
          "type": "uint32"
        },
        {
          "internalType": "uint256",
          "name": "interval",
          "type": "uint256"
        }
      ],
      "stateMutability": "nonpayable",
      "type": "constructor"
    },
    {
      "inputs": [
        {
          "internalType": "address",
          "name": "have",
          "type": "address"
        },
        {
          "internalType": "address",
          "name": "want",
          "type": "address"
        }
      ],
      "name": "OnlyCoordinatorCanFulfill",
      "type": "error"
    },
    {
      "inputs": [],
      "name": "Raffle__NotEnoughETHEntered",
      "type": "error"
    },
    {
      "inputs": [],
      "name": "Raffle__NotOpen",
      "type": "error"
    },
    {
      "inputs": [],
      "name": "Raffle__TransferredFailed",
      "type": "error"
    },
    {
      "inputs": [
        {
          "internalType": "uint256",
          "name": "currentBalance",
          "type": "uint256"
        },
        {
          "internalType": "uint256",
          "name": "numPlayers",
          "type": "uint256"
        },
        {
          "internalType": "uint256",
          "name": "raffleState",
          "type": "uint256"
        }
      ],
      "name": "Raffle__UpkeepNotNeeded",
      "type": "error"
    },
    {
      "anonymous": false,
      "inputs": [
        {
          "indexed": true,
          "internalType": "address",
          "name": "player",
          "type": "address"
        }
      ],
      "name": "RaffleEnter",
      "type": "event"
    },
    {
      "anonymous": false,
      "inputs": [
        {
          "indexed": true,
          "internalType": "uint256",
          "name": "requestId",
          "type": "uint256"
        }
      ],
      "name": "RequestedRaffleWinner",
      "type": "event"
    },
    {
      "anonymous": false,
      "inputs": [
        {
          "indexed": true,
          "internalType": "address",
          "name": "winner",
          "type": "address"
        }
      ],
      "name": "WinnerPicked",
      "type": "event"
    },
    {
      "inputs": [
        {
          "internalType": "bytes",
          "name": "",
          "type": "bytes"
        }
      ],
      "name": "checkUpkeep",
      "outputs": [
        {
          "internalType": "bool",
          "name": "upkeepNeeded",
          "type": "bool"
        },
        {
          "internalType": "bytes",
          "name": "",
          "type": "bytes"
        }
      ],
      "stateMutability": "nonpayable",
      "type": "function"
    },
    {
      "inputs": [],
      "name": "enterRaffle",
      "outputs": [],
      "stateMutability": "payable",
      "type": "function"
    },
    {
      "inputs": [],
      "name": "getEntranceFee",
      "outputs": [
        {
          "internalType": "uint256",
          "name": "",
          "type": "uint256"
        }
      ],
      "stateMutability": "view",
      "type": "function"
    },
    {
      "inputs": [],
      "name": "getInterval",
      "outputs": [
        {
          "internalType": "uint256",
          "name": "",
          "type": "uint256"
        }
      ],
      "stateMutability": "view",
      "type": "function"
    },
    {
      "inputs": [],
      "name": "getLastTimeStamp",
      "outputs": [
        {
          "internalType": "uint256",
          "name": "",
          "type": "uint256"
        }
      ],
      "stateMutability": "view",
      "type": "function"
    },
    {
      "inputs": [],
      "name": "getNumWords",
      "outputs": [
        {
          "internalType": "uint256",
          "name": "",
          "type": "uint256"
        }
      ],
      "stateMutability": "pure",
      "type": "function"
    },
    {
      "inputs": [],
      "name": "getNumberOfPlayers",
      "outputs": [
        {
          "internalType": "uint256",
          "name": "",
          "type": "uint256"
        }
      ],
      "stateMutability": "view",
      "type": "function"
    },
    {
      "inputs": [
        {
          "internalType": "uint256",
          "name": "index",
          "type": "uint256"
        }
      ],
      "name": "getPlayer",
      "outputs": [
        {
          "internalType": "address",
          "name": "",
          "type": "address"
        }
      ],
      "stateMutability": "view",
      "type": "function"
    },
    {
      "inputs": [],
      "name": "getRaffleState",
      "outputs": [
        {
          "internalType": "enum Raffle.RaffleState",
          "name": "",
          "type": "uint8"
        }
      ],
      "stateMutability": "view",
      "type": "function"
    },
    {
      "inputs": [],
      "name": "getRecentWinner",
      "outputs": [
        {
          "internalType": "address",
          "name": "",
          "type": "address"
        }
      ],
      "stateMutability": "view",
      "type": "function"
    },
    {
      "inputs": [],
      "name": "getRequestComfirmations",
      "outputs": [
        {
          "internalType": "uint256",
          "name": "",
          "type": "uint256"
        }
      ],
      "stateMutability": "pure",
      "type": "function"
    },
    {
      "inputs": [],
      "name": "getSubscriptionId",
      "outputs": [
        {
          "internalType": "uint64",
          "name": "",
          "type": "uint64"
        }
      ],
      "stateMutability": "view",
      "type": "function"
    },
    {
      "inputs": [
        {
          "internalType": "bytes",
          "name": "",
          "type": "bytes"
        }
      ],
      "name": "performUpkeep",
      "outputs": [],
      "stateMutability": "nonpayable",
      "type": "function"
    },
    {
      "inputs": [
        {
          "internalType": "uint256",
          "name": "requestId",
          "type": "uint256"
        },
        {
          "internalType": "uint256[]",
          "name": "randomWords",
          "type": "uint256[]"
        }
      ],
      "name": "rawFulfillRandomWords",
      "outputs": [],
      "stateMutability": "nonpayable",
      "type": "function"
    }
  ],
  "transactionHash": "0xc56c1c22c759c4d532b2eccbc2fb887de6b31cdd234e1b2d948e95e3f80d2712",
  "args": [
    "0x5FbDB2315678afecb367f032d93F642f64180aa3",
    "10000000000000000",
    "0xd89b2bf150e3b9e13446986e571fb9cab24b13cea0a43ea20a6049a85cc807cc",
    "1",
    "500000",
    "30"
  ],
  "numDeployments": 1,
  "solcInputHash": "bf640af3e29f5da04faf6c37714c9ffb",
  "bytecode": "0x6101606040523480156200001257600080fd5b506040516200189238038062001892833981810160405281019062000038919062000294565b858073ffffffffffffffffffffffffffffffffffffffff1660808173ffffffffffffffffffffffffffffffffffffffff1681525050508460a081815250508573ffffffffffffffffffffffffffffffffffffffff1660c08173ffffffffffffffffffffffffffffffffffffffff16815250508360e081815250508267ffffffffffffffff166101008167ffffffffffffffff16815250508163ffffffff166101208163ffffffff16815250506000600160146101000a81548160ff021916908360018111156200010d576200010c62000330565b5b0217905550426002819055508061014081815250505050505050506200035f565b600080fd5b600073ffffffffffffffffffffffffffffffffffffffff82169050919050565b6000620001608262000133565b9050919050565b620001728162000153565b81146200017e57600080fd5b50565b600081519050620001928162000167565b92915050565b6000819050919050565b620001ad8162000198565b8114620001b957600080fd5b50565b600081519050620001cd81620001a2565b92915050565b6000819050919050565b620001e881620001d3565b8114620001f457600080fd5b50565b6000815190506200020881620001dd565b92915050565b600067ffffffffffffffff82169050919050565b6200022d816200020e565b81146200023957600080fd5b50565b6000815190506200024d8162000222565b92915050565b600063ffffffff82169050919050565b6200026e8162000253565b81146200027a57600080fd5b50565b6000815190506200028e8162000263565b92915050565b60008060008060008060c08789031215620002b457620002b36200012e565b5b6000620002c489828a0162000181565b9650506020620002d789828a01620001bc565b9550506040620002ea89828a01620001f7565b9450506060620002fd89828a016200023c565b93505060806200031089828a016200027d565b92505060a06200032389828a01620001bc565b9150509295509295509295565b7f4e487b7100000000000000000000000000000000000000000000000000000000600052602160045260246000fd5b60805160a05160c05160e0516101005161012051610140516114bc620003d6600039600081816108230152610891015260006106ee0152600081816106cb01526108c3015260006106aa0152600061066e015260008181610340015261044a01526000818161038a01526103de01526114bc6000f3fe6080604052600436106100dd5760003560e01c806353a2c19a1161007f578063c1c244e811610059578063c1c244e81461027e578063de3d9fb7146102a9578063e55ae4e8146102d4578063fd6673f514610311576100dd565b806353a2c19a146101ea5780636e04ff0d1461021557806391ad27b414610253576100dd565b80631fe543e3116100bb5780631fe543e3146101635780632cfcc5391461018c5780634585e33b14610196578063473f1ddc146101bf576100dd565b806309bc33a7146100e25780630a75a4fa1461010d578063115cbaf514610138575b600080fd5b3480156100ee57600080fd5b506100f761033c565b6040516101049190610c2b565b60405180910390f35b34801561011957600080fd5b50610122610364565b60405161012f9190610c2b565b60405180910390f35b34801561014457600080fd5b5061014d610371565b60405161015a9190610cbd565b60405180910390f35b34801561016f57600080fd5b5061018a60048036038101906101859190610e71565b610388565b005b610194610448565b005b3480156101a257600080fd5b506101bd60048036038101906101b89190610f28565b6105b7565b005b3480156101cb57600080fd5b506101d46107a7565b6040516101e19190610fb6565b60405180910390f35b3480156101f657600080fd5b506101ff6107d1565b60405161020c9190610c2b565b60405180910390f35b34801561022157600080fd5b5061023c60048036038101906102379190611086565b6107e0565b60405161024a929190611169565b60405180910390f35b34801561025f57600080fd5b5061026861088d565b6040516102759190610c2b565b60405180910390f35b34801561028a57600080fd5b506102936108b5565b6040516102a09190610c2b565b60405180910390f35b3480156102b557600080fd5b506102be6108bf565b6040516102cb91906111bc565b60405180910390f35b3480156102e057600080fd5b506102fb60048036038101906102f691906111d7565b6108e7565b6040516103089190610fb6565b60405180910390f35b34801561031d57600080fd5b5061032661092e565b6040516103339190610c2b565b60405180910390f35b60007f0000000000000000000000000000000000000000000000000000000000000000905090565b6000600361ffff16905090565b6000600160149054906101000a900460ff16905090565b7f000000000000000000000000000000000000000000000000000000000000000073ffffffffffffffffffffffffffffffffffffffff163373ffffffffffffffffffffffffffffffffffffffff161461043a57337f00000000000000000000000000000000000000000000000000000000000000006040517f1cf993f4000000000000000000000000000000000000000000000000000000008152600401610431929190611204565b60405180910390fd5b610444828261093a565b5050565b7f00000000000000000000000000000000000000000000000000000000000000003410156104a2576040517fbd4e069500000000000000000000000000000000000000000000000000000000815260040160405180910390fd5b600060018111156104b6576104b5610c46565b5b600160149054906101000a900460ff1660018111156104d8576104d7610c46565b5b1461050f576040517f1425571c00000000000000000000000000000000000000000000000000000000815260040160405180910390fd5b6000339080600181540180825580915050600190039060005260206000200160009091909190916101000a81548173ffffffffffffffffffffffffffffffffffffffff021916908373ffffffffffffffffffffffffffffffffffffffff1602179055503373ffffffffffffffffffffffffffffffffffffffff167f0805e1d667bddb8a95f0f09880cf94f403fb596ce79928d9f29b74203ba284d460405160405180910390a2565b60006105d1604051806020016040528060008152506107e0565b509050806106405747600080549050600160149054906101000a900460ff16600181111561060257610601610c46565b5b6040517f584327aa0000000000000000000000000000000000000000000000000000000081526004016106379392919061122d565b60405180910390fd5b60018060146101000a81548160ff0219169083600181111561066557610664610c46565b5b021790555060007f000000000000000000000000000000000000000000000000000000000000000073ffffffffffffffffffffffffffffffffffffffff16635d3b1d307f00000000000000000000000000000000000000000000000000000000000000007f000000000000000000000000000000000000000000000000000000000000000060037f000000000000000000000000000000000000000000000000000000000000000060016040518663ffffffff1660e01b815260040161072f9594939291906112b9565b6020604051808303816000875af115801561074e573d6000803e3d6000fd5b505050506040513d601f19601f820116820180604052508101906107729190611321565b9050807fcd6e45c8998311cab7e9d4385596cac867e20a0587194b954fa3a731c93ce78b60405160405180910390a250505050565b6000600160009054906101000a900473ffffffffffffffffffffffffffffffffffffffff16905090565b6000600163ffffffff16905090565b600060606000600160149054906101000a900460ff16600181111561080857610807610c46565b5b6000600181111561081c5761081b610c46565b5b14905060007f000000000000000000000000000000000000000000000000000000000000000060025442610850919061137d565b119050600080600080549050119050600080471190508380156108705750825b80156108795750815b80156108825750805b955050505050915091565b60007f0000000000000000000000000000000000000000000000000000000000000000905090565b6000600254905090565b60007f0000000000000000000000000000000000000000000000000000000000000000905090565b60008082815481106108fc576108fb6113b1565b5b9060005260206000200160009054906101000a900473ffffffffffffffffffffffffffffffffffffffff169050919050565b60008080549050905090565b6000808054905082600081518110610955576109546113b1565b5b6020026020010151610967919061140f565b9050600080828154811061097e5761097d6113b1565b5b9060005260206000200160009054906101000a900473ffffffffffffffffffffffffffffffffffffffff16905080600160006101000a81548173ffffffffffffffffffffffffffffffffffffffff021916908373ffffffffffffffffffffffffffffffffffffffff1602179055506000600160146101000a81548160ff02191690836001811115610a1257610a11610c46565b5b0217905550600067ffffffffffffffff811115610a3257610a31610d2e565b5b604051908082528060200260200182016040528015610a605781602001602082028036833780820191505090505b5060009080519060200190610a76929190610b6b565b504260028190555060008173ffffffffffffffffffffffffffffffffffffffff1647604051610aa490611471565b60006040518083038185875af1925050503d8060008114610ae1576040519150601f19603f3d011682016040523d82523d6000602084013e610ae6565b606091505b5050905080610b21576040517f4b9443ab00000000000000000000000000000000000000000000000000000000815260040160405180910390fd5b8173ffffffffffffffffffffffffffffffffffffffff167f5b690ec4a06fe979403046eaeea5b3ce38524683c3001f662c8b5a829632f7df60405160405180910390a25050505050565b828054828255906000526020600020908101928215610be4579160200282015b82811115610be35782518260006101000a81548173ffffffffffffffffffffffffffffffffffffffff021916908373ffffffffffffffffffffffffffffffffffffffff16021790555091602001919060010190610b8b565b5b509050610bf19190610bf5565b5090565b5b80821115610c0e576000816000905550600101610bf6565b5090565b6000819050919050565b610c2581610c12565b82525050565b6000602082019050610c406000830184610c1c565b92915050565b7f4e487b7100000000000000000000000000000000000000000000000000000000600052602160045260246000fd5b60028110610c8657610c85610c46565b5b50565b6000819050610c9782610c75565b919050565b6000610ca782610c89565b9050919050565b610cb781610c9c565b82525050565b6000602082019050610cd26000830184610cae565b92915050565b6000604051905090565b600080fd5b600080fd5b610cf581610c12565b8114610d0057600080fd5b50565b600081359050610d1281610cec565b92915050565b600080fd5b6000601f19601f8301169050919050565b7f4e487b7100000000000000000000000000000000000000000000000000000000600052604160045260246000fd5b610d6682610d1d565b810181811067ffffffffffffffff82111715610d8557610d84610d2e565b5b80604052505050565b6000610d98610cd8565b9050610da48282610d5d565b919050565b600067ffffffffffffffff821115610dc457610dc3610d2e565b5b602082029050602081019050919050565b600080fd5b6000610ded610de884610da9565b610d8e565b90508083825260208201905060208402830185811115610e1057610e0f610dd5565b5b835b81811015610e395780610e258882610d03565b845260208401935050602081019050610e12565b5050509392505050565b600082601f830112610e5857610e57610d18565b5b8135610e68848260208601610dda565b91505092915050565b60008060408385031215610e8857610e87610ce2565b5b6000610e9685828601610d03565b925050602083013567ffffffffffffffff811115610eb757610eb6610ce7565b5b610ec385828601610e43565b9150509250929050565b600080fd5b60008083601f840112610ee857610ee7610d18565b5b8235905067ffffffffffffffff811115610f0557610f04610ecd565b5b602083019150836001820283011115610f2157610f20610dd5565b5b9250929050565b60008060208385031215610f3f57610f3e610ce2565b5b600083013567ffffffffffffffff811115610f5d57610f5c610ce7565b5b610f6985828601610ed2565b92509250509250929050565b600073ffffffffffffffffffffffffffffffffffffffff82169050919050565b6000610fa082610f75565b9050919050565b610fb081610f95565b82525050565b6000602082019050610fcb6000830184610fa7565b92915050565b600080fd5b600067ffffffffffffffff821115610ff157610ff0610d2e565b5b610ffa82610d1d565b9050602081019050919050565b82818337600083830152505050565b600061102961102484610fd6565b610d8e565b90508281526020810184848401111561104557611044610fd1565b5b611050848285611007565b509392505050565b600082601f83011261106d5761106c610d18565b5b813561107d848260208601611016565b91505092915050565b60006020828403121561109c5761109b610ce2565b5b600082013567ffffffffffffffff8111156110ba576110b9610ce7565b5b6110c684828501611058565b91505092915050565b60008115159050919050565b6110e4816110cf565b82525050565b600081519050919050565b600082825260208201905092915050565b60005b83811015611124578082015181840152602081019050611109565b60008484015250505050565b600061113b826110ea565b61114581856110f5565b9350611155818560208601611106565b61115e81610d1d565b840191505092915050565b600060408201905061117e60008301856110db565b81810360208301526111908184611130565b90509392505050565b600067ffffffffffffffff82169050919050565b6111b681611199565b82525050565b60006020820190506111d160008301846111ad565b92915050565b6000602082840312156111ed576111ec610ce2565b5b60006111fb84828501610d03565b91505092915050565b60006040820190506112196000830185610fa7565b6112266020830184610fa7565b9392505050565b60006060820190506112426000830186610c1c565b61124f6020830185610c1c565b61125c6040830184610c1c565b949350505050565b6000819050919050565b61127781611264565b82525050565b600061ffff82169050919050565b6112948161127d565b82525050565b600063ffffffff82169050919050565b6112b38161129a565b82525050565b600060a0820190506112ce600083018861126e565b6112db60208301876111ad565b6112e8604083018661128b565b6112f560608301856112aa565b61130260808301846112aa565b9695505050505050565b60008151905061131b81610cec565b92915050565b60006020828403121561133757611336610ce2565b5b60006113458482850161130c565b91505092915050565b7f4e487b7100000000000000000000000000000000000000000000000000000000600052601160045260246000fd5b600061138882610c12565b915061139383610c12565b92508282039050818111156113ab576113aa61134e565b5b92915050565b7f4e487b7100000000000000000000000000000000000000000000000000000000600052603260045260246000fd5b7f4e487b7100000000000000000000000000000000000000000000000000000000600052601260045260246000fd5b600061141a82610c12565b915061142583610c12565b925082611435576114346113e0565b5b828206905092915050565b600081905092915050565b50565b600061145b600083611440565b91506114668261144b565b600082019050919050565b600061147c8261144e565b915081905091905056fea2646970667358221220e02346bffc6a8f8fb3d7c944a46115a50760b02b8834191d34f2def3f11eca7e64736f6c63430008110033",
  "devdoc": {
    "author": "Surinder Kumr",
    "details": "This implements Chainlink VRF v2 and Chainlink Keepers",
    "kind": "dev",
    "methods": {
      "checkUpkeep(bytes)": {
        "details": "This is the function that the chainlink Keeper nodes call they look for the `upkeepNeeded` to return true. The following should be true in order to return true 1. Our time interval should have passed 2. The lottery should have atleast one player and have some ETH 3. Our subscription is funded with LINK 4. The lottery shoudl be in \"open\" state"
      }
    },
    "title": "A sample Raffle contract",
    "version": 1
  },
  "userdoc": {
    "kind": "user",
    "methods": {},
    "notice": "This contract is for creating an untamperable decentralized smart contract",
    "version": 1
  },
  "storageLayout": {
    "storage": [
      {
        "astId": 208,
        "contract": "contracts/Raffle.sol:Raffle",
        "label": "s_players",
        "offset": 0,
        "slot": "0",
        "type": "t_array(t_address_payable)dyn_storage"
      },
      {
        "astId": 225,
        "contract": "contracts/Raffle.sol:Raffle",
        "label": "s_recentWinner",
        "offset": 0,
        "slot": "1",
        "type": "t_address"
      },
      {
        "astId": 228,
        "contract": "contracts/Raffle.sol:Raffle",
        "label": "s_raffleState",
        "offset": 20,
        "slot": "1",
        "type": "t_enum(RaffleState)203"
      },
      {
        "astId": 230,
        "contract": "contracts/Raffle.sol:Raffle",
        "label": "s_lastTimeStamp",
        "offset": 0,
        "slot": "2",
        "type": "t_uint256"
      }
    ],
    "types": {
      "t_address": {
        "encoding": "inplace",
        "label": "address",
        "numberOfBytes": "20"
      },
      "t_address_payable": {
        "encoding": "inplace",
        "label": "address payable",
        "numberOfBytes": "20"
      },
      "t_array(t_address_payable)dyn_storage": {
        "base": "t_address_payable",
        "encoding": "dynamic_array",
        "label": "address payable[]",
        "numberOfBytes": "32"
      },
      "t_enum(RaffleState)203": {
        "encoding": "inplace",
        "label": "enum Raffle.RaffleState",
        "numberOfBytes": "1"
      },
      "t_uint256": {
        "encoding": "inplace",
        "label": "uint256",
        "numberOfBytes": "32"
      }
    }
  }
}